{
  "contractName": "NFTMarketplace",
  "abi": [
    {
      "inputs": [],
      "stateMutability": "nonpayable",
      "type": "constructor"
    },
    {
      "anonymous": false,
      "inputs": [
        {
          "indexed": true,
          "internalType": "address",
          "name": "owner",
          "type": "address"
        },
        {
          "indexed": true,
          "internalType": "address",
          "name": "approved",
          "type": "address"
        },
        {
          "indexed": true,
          "internalType": "uint256",
          "name": "tokenId",
          "type": "uint256"
        }
      ],
      "name": "Approval",
      "type": "event"
    },
    {
      "anonymous": false,
      "inputs": [
        {
          "indexed": true,
          "internalType": "address",
          "name": "owner",
          "type": "address"
        },
        {
          "indexed": true,
          "internalType": "address",
          "name": "operator",
          "type": "address"
        },
        {
          "indexed": false,
          "internalType": "bool",
          "name": "approved",
          "type": "bool"
        }
      ],
      "name": "ApprovalForAll",
      "type": "event"
    },
    {
      "anonymous": false,
      "inputs": [
        {
          "indexed": false,
          "internalType": "uint256",
          "name": "_fromTokenId",
          "type": "uint256"
        },
        {
          "indexed": false,
          "internalType": "uint256",
          "name": "_toTokenId",
          "type": "uint256"
        }
      ],
      "name": "BatchMetadataUpdate",
      "type": "event"
    },
    {
      "anonymous": false,
      "inputs": [
        {
          "indexed": true,
          "internalType": "uint256",
          "name": "tokenId",
          "type": "uint256"
        },
        {
          "indexed": false,
          "internalType": "string",
          "name": "tokenURI",
          "type": "string"
        },
        {
          "indexed": false,
          "internalType": "string",
          "name": "name",
          "type": "string"
        },
        {
          "indexed": false,
          "internalType": "string",
          "name": "description",
          "type": "string"
        },
        {
          "indexed": false,
          "internalType": "string",
          "name": "imageUrl",
          "type": "string"
        },
        {
          "indexed": false,
          "internalType": "bytes",
          "name": "attributes",
          "type": "bytes"
        },
        {
          "indexed": false,
          "internalType": "address",
          "name": "seller",
          "type": "address"
        },
        {
          "indexed": false,
          "internalType": "address",
          "name": "owner",
          "type": "address"
        },
        {
          "indexed": false,
          "internalType": "uint256",
          "name": "price",
          "type": "uint256"
        },
        {
          "indexed": false,
          "internalType": "bool",
          "name": "sold",
          "type": "bool"
        }
      ],
      "name": "MarketItemCreated",
      "type": "event"
    },
    {
      "anonymous": false,
      "inputs": [
        {
          "indexed": false,
          "internalType": "uint256",
          "name": "_tokenId",
          "type": "uint256"
        }
      ],
      "name": "MetadataUpdate",
      "type": "event"
    },
    {
      "anonymous": false,
      "inputs": [
        {
          "indexed": true,
          "internalType": "address",
          "name": "from",
          "type": "address"
        },
        {
          "indexed": true,
          "internalType": "address",
          "name": "to",
          "type": "address"
        },
        {
          "indexed": true,
          "internalType": "uint256",
          "name": "tokenId",
          "type": "uint256"
        }
      ],
      "name": "Transfer",
      "type": "event"
    },
    {
      "inputs": [
        {
          "internalType": "address",
          "name": "to",
          "type": "address"
        },
        {
          "internalType": "uint256",
          "name": "tokenId",
          "type": "uint256"
        }
      ],
      "name": "approve",
      "outputs": [],
      "stateMutability": "nonpayable",
      "type": "function"
    },
    {
      "inputs": [
        {
          "internalType": "address",
          "name": "owner",
          "type": "address"
        }
      ],
      "name": "balanceOf",
      "outputs": [
        {
          "internalType": "uint256",
          "name": "",
          "type": "uint256"
        }
      ],
      "stateMutability": "view",
      "type": "function",
      "constant": true
    },
    {
      "inputs": [
        {
          "internalType": "uint256",
          "name": "tokenId",
          "type": "uint256"
        }
      ],
      "name": "getApproved",
      "outputs": [
        {
          "internalType": "address",
          "name": "",
          "type": "address"
        }
      ],
      "stateMutability": "view",
      "type": "function",
      "constant": true
    },
    {
      "inputs": [
        {
          "internalType": "address",
          "name": "owner",
          "type": "address"
        },
        {
          "internalType": "address",
          "name": "operator",
          "type": "address"
        }
      ],
      "name": "isApprovedForAll",
      "outputs": [
        {
          "internalType": "bool",
          "name": "",
          "type": "bool"
        }
      ],
      "stateMutability": "view",
      "type": "function",
      "constant": true
    },
    {
      "inputs": [],
      "name": "name",
      "outputs": [
        {
          "internalType": "string",
          "name": "",
          "type": "string"
        }
      ],
      "stateMutability": "view",
      "type": "function",
      "constant": true
    },
    {
      "inputs": [
        {
          "internalType": "uint256",
          "name": "tokenId",
          "type": "uint256"
        }
      ],
      "name": "ownerOf",
      "outputs": [
        {
          "internalType": "address",
          "name": "",
          "type": "address"
        }
      ],
      "stateMutability": "view",
      "type": "function",
      "constant": true
    },
    {
      "inputs": [
        {
          "internalType": "address",
          "name": "from",
          "type": "address"
        },
        {
          "internalType": "address",
          "name": "to",
          "type": "address"
        },
        {
          "internalType": "uint256",
          "name": "tokenId",
          "type": "uint256"
        }
      ],
      "name": "safeTransferFrom",
      "outputs": [],
      "stateMutability": "nonpayable",
      "type": "function"
    },
    {
      "inputs": [
        {
          "internalType": "address",
          "name": "from",
          "type": "address"
        },
        {
          "internalType": "address",
          "name": "to",
          "type": "address"
        },
        {
          "internalType": "uint256",
          "name": "tokenId",
          "type": "uint256"
        },
        {
          "internalType": "bytes",
          "name": "data",
          "type": "bytes"
        }
      ],
      "name": "safeTransferFrom",
      "outputs": [],
      "stateMutability": "nonpayable",
      "type": "function"
    },
    {
      "inputs": [
        {
          "internalType": "address",
          "name": "operator",
          "type": "address"
        },
        {
          "internalType": "bool",
          "name": "approved",
          "type": "bool"
        }
      ],
      "name": "setApprovalForAll",
      "outputs": [],
      "stateMutability": "nonpayable",
      "type": "function"
    },
    {
      "inputs": [
        {
          "internalType": "bytes4",
          "name": "interfaceId",
          "type": "bytes4"
        }
      ],
      "name": "supportsInterface",
      "outputs": [
        {
          "internalType": "bool",
          "name": "",
          "type": "bool"
        }
      ],
      "stateMutability": "view",
      "type": "function",
      "constant": true
    },
    {
      "inputs": [],
      "name": "symbol",
      "outputs": [
        {
          "internalType": "string",
          "name": "",
          "type": "string"
        }
      ],
      "stateMutability": "view",
      "type": "function",
      "constant": true
    },
    {
      "inputs": [
        {
          "internalType": "uint256",
          "name": "tokenId",
          "type": "uint256"
        }
      ],
      "name": "tokenURI",
      "outputs": [
        {
          "internalType": "string",
          "name": "",
          "type": "string"
        }
      ],
      "stateMutability": "view",
      "type": "function",
      "constant": true
    },
    {
      "inputs": [
        {
          "internalType": "address",
          "name": "from",
          "type": "address"
        },
        {
          "internalType": "address",
          "name": "to",
          "type": "address"
        },
        {
          "internalType": "uint256",
          "name": "tokenId",
          "type": "uint256"
        }
      ],
      "name": "transferFrom",
      "outputs": [],
      "stateMutability": "nonpayable",
      "type": "function"
    },
    {
      "inputs": [
        {
          "internalType": "uint256",
          "name": "_listingPrice",
          "type": "uint256"
        }
      ],
      "name": "updateListingPrice",
      "outputs": [],
      "stateMutability": "payable",
      "type": "function",
      "payable": true
    },
    {
      "inputs": [],
      "name": "getListingPrice",
      "outputs": [
        {
          "internalType": "uint256",
          "name": "",
          "type": "uint256"
        }
      ],
      "stateMutability": "view",
      "type": "function",
      "constant": true
    },
    {
      "inputs": [
        {
          "internalType": "string",
          "name": "tokenURI",
          "type": "string"
        },
        {
          "internalType": "string",
          "name": "name",
          "type": "string"
        },
        {
          "internalType": "string",
          "name": "description",
          "type": "string"
        },
        {
          "internalType": "string",
          "name": "imageUrl",
          "type": "string"
        },
        {
          "components": [
            {
              "internalType": "string",
              "name": "trait",
              "type": "string"
            },
            {
              "internalType": "string",
              "name": "value",
              "type": "string"
            }
          ],
          "internalType": "struct NFTMarketplace.Attribute[]",
          "name": "attributes",
          "type": "tuple[]"
        },
        {
          "internalType": "uint256",
          "name": "price",
          "type": "uint256"
        }
      ],
      "name": "createToken",
      "outputs": [
        {
          "internalType": "uint256",
          "name": "",
          "type": "uint256"
        }
      ],
      "stateMutability": "payable",
      "type": "function",
      "payable": true
    },
    {
      "inputs": [
        {
          "internalType": "uint256",
          "name": "tokenId",
          "type": "uint256"
        },
        {
          "internalType": "uint256",
          "name": "price",
          "type": "uint256"
        }
      ],
      "name": "resellToken",
      "outputs": [],
      "stateMutability": "payable",
      "type": "function",
      "payable": true
    },
    {
      "inputs": [
        {
          "internalType": "uint256",
          "name": "tokenId",
          "type": "uint256"
        }
      ],
      "name": "createMarketSale",
      "outputs": [],
      "stateMutability": "payable",
      "type": "function",
      "payable": true
    },
    {
      "inputs": [],
      "name": "fetchMarketItems",
      "outputs": [
        {
          "components": [
            {
              "internalType": "uint256",
              "name": "tokenId",
              "type": "uint256"
            },
            {
              "internalType": "string",
              "name": "tokenURI",
              "type": "string"
            },
            {
              "internalType": "string",
              "name": "name",
              "type": "string"
            },
            {
              "internalType": "string",
              "name": "description",
              "type": "string"
            },
            {
              "internalType": "string",
              "name": "imageUrl",
              "type": "string"
            },
            {
              "internalType": "bytes",
              "name": "attributes",
              "type": "bytes"
            },
            {
              "internalType": "address payable",
              "name": "seller",
              "type": "address"
            },
            {
              "internalType": "address payable",
              "name": "owner",
              "type": "address"
            },
            {
              "internalType": "uint256",
              "name": "price",
              "type": "uint256"
            },
            {
              "internalType": "bool",
              "name": "sold",
              "type": "bool"
            }
          ],
          "internalType": "struct NFTMarketplace.MarketItem[]",
          "name": "",
          "type": "tuple[]"
        }
      ],
      "stateMutability": "view",
      "type": "function",
      "constant": true
    },
    {
      "inputs": [],
      "name": "fetchMyNFTs",
      "outputs": [
        {
          "components": [
            {
              "internalType": "uint256",
              "name": "tokenId",
              "type": "uint256"
            },
            {
              "internalType": "string",
              "name": "tokenURI",
              "type": "string"
            },
            {
              "internalType": "string",
              "name": "name",
              "type": "string"
            },
            {
              "internalType": "string",
              "name": "description",
              "type": "string"
            },
            {
              "internalType": "string",
              "name": "imageUrl",
              "type": "string"
            },
            {
              "internalType": "bytes",
              "name": "attributes",
              "type": "bytes"
            },
            {
              "internalType": "address payable",
              "name": "seller",
              "type": "address"
            },
            {
              "internalType": "address payable",
              "name": "owner",
              "type": "address"
            },
            {
              "internalType": "uint256",
              "name": "price",
              "type": "uint256"
            },
            {
              "internalType": "bool",
              "name": "sold",
              "type": "bool"
            }
          ],
          "internalType": "struct NFTMarketplace.MarketItem[]",
          "name": "",
          "type": "tuple[]"
        }
      ],
      "stateMutability": "view",
      "type": "function",
      "constant": true
    },
    {
      "inputs": [],
      "name": "fetchItemsListed",
      "outputs": [
        {
          "components": [
            {
              "internalType": "uint256",
              "name": "tokenId",
              "type": "uint256"
            },
            {
              "internalType": "string",
              "name": "tokenURI",
              "type": "string"
            },
            {
              "internalType": "string",
              "name": "name",
              "type": "string"
            },
            {
              "internalType": "string",
              "name": "description",
              "type": "string"
            },
            {
              "internalType": "string",
              "name": "imageUrl",
              "type": "string"
            },
            {
              "internalType": "bytes",
              "name": "attributes",
              "type": "bytes"
            },
            {
              "internalType": "address payable",
              "name": "seller",
              "type": "address"
            },
            {
              "internalType": "address payable",
              "name": "owner",
              "type": "address"
            },
            {
              "internalType": "uint256",
              "name": "price",
              "type": "uint256"
            },
            {
              "internalType": "bool",
              "name": "sold",
              "type": "bool"
            }
          ],
          "internalType": "struct NFTMarketplace.MarketItem[]",
          "name": "",
          "type": "tuple[]"
        }
      ],
      "stateMutability": "view",
      "type": "function",
      "constant": true
    },
    {
      "inputs": [
        {
          "internalType": "bytes",
          "name": "attributesData",
          "type": "bytes"
        }
      ],
      "name": "decodeAttributes",
      "outputs": [
        {
          "components": [
            {
              "internalType": "string",
              "name": "trait",
              "type": "string"
            },
            {
              "internalType": "string",
              "name": "value",
              "type": "string"
            }
          ],
          "internalType": "struct NFTMarketplace.Attribute[]",
          "name": "",
          "type": "tuple[]"
        }
      ],
      "stateMutability": "pure",
      "type": "function",
      "constant": true
    }
  ],
  "bytecode": "0x6080604052620186a06009553480156200001857600080fd5b506040518060400160405280601081526020017f4d657461766572736520546f6b656e73000000000000000000000000000000008152506040518060400160405280600481526020017f4d4554540000000000000000000000000000000000000000000000000000000081525081600090805190602001906200009d92919062000100565b508060019080519060200190620000b692919062000100565b50505033600a60006101000a81548173ffffffffffffffffffffffffffffffffffffffff021916908373ffffffffffffffffffffffffffffffffffffffff16021790555062000214565b8280546200010e90620001df565b90600052602060002090601f0160209004810192826200013257600085556200017e565b82601f106200014d57805160ff19168380011785556200017e565b828001600101855582156200017e579182015b828111156200017d57825182559160200191906001019062000160565b5b5090506200018d919062000191565b5090565b5b80821115620001ac57600081600090555060010162000192565b5090565b7f4e487b7100000000000000000000000000000000000000000000000000000000600052602260045260246000fd5b60006002820490506001821680620001f857607f821691505b6020821081036200020e576200020d620001b0565b5b50919050565b6152f980620002246000396000f3fe6080604052600436106101355760003560e01c80636352211e116100ab578063b88d4fde1161006f578063b88d4fde1461042d578063be9af53614610456578063c87b56dd14610472578063e219fc75146104af578063e985e9c5146104cb578063ef6c67011461050857610135565b80636352211e1461034357806370a082311461038057806395d89b41146103bd578063a22cb465146103e8578063ae677aa31461041157610135565b806312e85585116100fd57806312e8558514610233578063202e37401461025e57806323b872dd1461028957806324096605146102b257806342842e0e146102ef57806345f8fa801461031857610135565b806301ffc9a71461013a57806306fdde0314610177578063081812fc146101a2578063095ea7b3146101df5780630f08efe014610208575b600080fd5b34801561014657600080fd5b50610161600480360381019061015c91906136d4565b610538565b60405161016e919061371c565b60405180910390f35b34801561018357600080fd5b5061018c610599565b60405161019991906137d0565b60405180910390f35b3480156101ae57600080fd5b506101c960048036038101906101c49190613828565b61062b565b6040516101d69190613896565b60405180910390f35b3480156101eb57600080fd5b50610206600480360381019061020191906138dd565b610671565b005b34801561021457600080fd5b5061021d610788565b60405161022a9190613bb3565b60405180910390f35b34801561023f57600080fd5b50610248610ccb565b6040516102559190613be4565b60405180910390f35b34801561026a57600080fd5b50610273610cd5565b6040516102809190613bb3565b60405180910390f35b34801561029557600080fd5b506102b060048036038101906102ab9190613bff565b61129c565b005b3480156102be57600080fd5b506102d960048036038101906102d49190613d87565b6112fc565b6040516102e69190613ed6565b60405180910390f35b3480156102fb57600080fd5b5061031660048036038101906103119190613bff565b61131f565b005b34801561032457600080fd5b5061032d61133f565b60405161033a9190613bb3565b60405180910390f35b34801561034f57600080fd5b5061036a60048036038101906103659190613828565b611906565b6040516103779190613896565b60405180910390f35b34801561038c57600080fd5b506103a760048036038101906103a29190613ef8565b61198c565b6040516103b49190613be4565b60405180910390f35b3480156103c957600080fd5b506103d2611a43565b6040516103df91906137d0565b60405180910390f35b3480156103f457600080fd5b5061040f600480360381019061040a9190613f51565b611ad5565b005b61042b60048036038101906104269190613828565b611aeb565b005b34801561043957600080fd5b50610454600480360381019061044f9190613f91565b611b85565b005b610470600480360381019061046b9190613828565b611be7565b005b34801561047e57600080fd5b5061049960048036038101906104949190613828565b611e25565b6040516104a691906137d0565b60405180910390f35b6104c960048036038101906104c49190614014565b611f37565b005b3480156104d757600080fd5b506104f260048036038101906104ed9190614054565b61212c565b6040516104ff919061371c565b60405180910390f35b610522600480360381019061051d91906142ad565b6121c0565b60405161052f9190613be4565b60405180910390f35b6000634906490660e01b7bffffffffffffffffffffffffffffffffffffffffffffffffffffffff1916827bffffffffffffffffffffffffffffffffffffffffffffffffffffffff1916148061059257506105918261220b565b5b9050919050565b6060600080546105a8906143f5565b80601f01602080910402602001604051908101604052809291908181526020018280546105d4906143f5565b80156106215780601f106105f657610100808354040283529160200191610621565b820191906000526020600020905b81548152906001019060200180831161060457829003601f168201915b5050505050905090565b6000610636826122ed565b6004600083815260200190815260200160002060009054906101000a900473ffffffffffffffffffffffffffffffffffffffff169050919050565b600061067c82611906565b90508073ffffffffffffffffffffffffffffffffffffffff168373ffffffffffffffffffffffffffffffffffffffff16036106ec576040517f08c379a00000000000000000000000000000000000000000000000000000000081526004016106e390614498565b60405180910390fd5b8073ffffffffffffffffffffffffffffffffffffffff1661070b612338565b73ffffffffffffffffffffffffffffffffffffffff16148061073a575061073981610734612338565b61212c565b5b610779576040517f08c379a00000000000000000000000000000000000000000000000000000000081526004016107709061452a565b60405180910390fd5b6107838383612340565b505050565b6060600061079660076123f9565b905060006107a460086123f9565b6107ae60076123f9565b6107b89190614579565b90506000808267ffffffffffffffff8111156107d7576107d6613c5c565b5b60405190808252806020026020018201604052801561081057816020015b6107fd6134be565b8152602001906001900390816107f55790505b50905060005b84811015610cc0573073ffffffffffffffffffffffffffffffffffffffff16600b600060018461084691906145ad565b815260200190815260200160002060070160009054906101000a900473ffffffffffffffffffffffffffffffffffffffff1673ffffffffffffffffffffffffffffffffffffffff1603610cad5760006001826108a291906145ad565b90506000600b600083815260200190815260200160002090508060405180610140016040529081600082015481526020016001820180546108e2906143f5565b80601f016020809104026020016040519081016040528092919081815260200182805461090e906143f5565b801561095b5780601f106109305761010080835404028352916020019161095b565b820191906000526020600020905b81548152906001019060200180831161093e57829003601f168201915b50505050508152602001600282018054610974906143f5565b80601f01602080910402602001604051908101604052809291908181526020018280546109a0906143f5565b80156109ed5780601f106109c2576101008083540402835291602001916109ed565b820191906000526020600020905b8154815290600101906020018083116109d057829003601f168201915b50505050508152602001600382018054610a06906143f5565b80601f0160208091040260200160405190810160405280929190818152602001828054610a32906143f5565b8015610a7f5780601f10610a5457610100808354040283529160200191610a7f565b820191906000526020600020905b815481529060010190602001808311610a6257829003601f168201915b50505050508152602001600482018054610a98906143f5565b80601f0160208091040260200160405190810160405280929190818152602001828054610ac4906143f5565b8015610b115780601f10610ae657610100808354040283529160200191610b11565b820191906000526020600020905b815481529060010190602001808311610af457829003601f168201915b50505050508152602001600582018054610b2a906143f5565b80601f0160208091040260200160405190810160405280929190818152602001828054610b56906143f5565b8015610ba35780601f10610b7857610100808354040283529160200191610ba3565b820191906000526020600020905b815481529060010190602001808311610b8657829003601f168201915b505050505081526020016006820160009054906101000a900473ffffffffffffffffffffffffffffffffffffffff1673ffffffffffffffffffffffffffffffffffffffff1673ffffffffffffffffffffffffffffffffffffffff1681526020016007820160009054906101000a900473ffffffffffffffffffffffffffffffffffffffff1673ffffffffffffffffffffffffffffffffffffffff1673ffffffffffffffffffffffffffffffffffffffff168152602001600882015481526020016009820160009054906101000a900460ff161515151581525050848681518110610c9057610c8f614603565b5b6020026020010181905250600185610ca891906145ad565b945050505b8080610cb890614632565b915050610816565b508094505050505090565b6000600954905090565b60606000610ce360076123f9565b905060008060005b83811015610d8b573373ffffffffffffffffffffffffffffffffffffffff16600b6000600184610d1b91906145ad565b815260200190815260200160002060070160009054906101000a900473ffffffffffffffffffffffffffffffffffffffff1673ffffffffffffffffffffffffffffffffffffffff1603610d7857600183610d7591906145ad565b92505b8080610d8390614632565b915050610ceb565b5060008267ffffffffffffffff811115610da857610da7613c5c565b5b604051908082528060200260200182016040528015610de157816020015b610dce6134be565b815260200190600190039081610dc65790505b50905060005b84811015611291573373ffffffffffffffffffffffffffffffffffffffff16600b6000600184610e1791906145ad565b815260200190815260200160002060070160009054906101000a900473ffffffffffffffffffffffffffffffffffffffff1673ffffffffffffffffffffffffffffffffffffffff160361127e576000600182610e7391906145ad565b90506000600b60008381526020019081526020016000209050806040518061014001604052908160008201548152602001600182018054610eb3906143f5565b80601f0160208091040260200160405190810160405280929190818152602001828054610edf906143f5565b8015610f2c5780601f10610f0157610100808354040283529160200191610f2c565b820191906000526020600020905b815481529060010190602001808311610f0f57829003601f168201915b50505050508152602001600282018054610f45906143f5565b80601f0160208091040260200160405190810160405280929190818152602001828054610f71906143f5565b8015610fbe5780601f10610f9357610100808354040283529160200191610fbe565b820191906000526020600020905b815481529060010190602001808311610fa157829003601f168201915b50505050508152602001600382018054610fd7906143f5565b80601f0160208091040260200160405190810160405280929190818152602001828054611003906143f5565b80156110505780601f1061102557610100808354040283529160200191611050565b820191906000526020600020905b81548152906001019060200180831161103357829003601f168201915b50505050508152602001600482018054611069906143f5565b80601f0160208091040260200160405190810160405280929190818152602001828054611095906143f5565b80156110e25780601f106110b7576101008083540402835291602001916110e2565b820191906000526020600020905b8154815290600101906020018083116110c557829003601f168201915b505050505081526020016005820180546110fb906143f5565b80601f0160208091040260200160405190810160405280929190818152602001828054611127906143f5565b80156111745780601f1061114957610100808354040283529160200191611174565b820191906000526020600020905b81548152906001019060200180831161115757829003601f168201915b505050505081526020016006820160009054906101000a900473ffffffffffffffffffffffffffffffffffffffff1673ffffffffffffffffffffffffffffffffffffffff1673ffffffffffffffffffffffffffffffffffffffff1681526020016007820160009054906101000a900473ffffffffffffffffffffffffffffffffffffffff1673ffffffffffffffffffffffffffffffffffffffff1673ffffffffffffffffffffffffffffffffffffffff168152602001600882015481526020016009820160009054906101000a900460ff16151515158152505084868151811061126157611260614603565b5b602002602001018190525060018561127991906145ad565b945050505b808061128990614632565b915050610de7565b508094505050505090565b6112ad6112a7612338565b82612407565b6112ec576040517f08c379a00000000000000000000000000000000000000000000000000000000081526004016112e3906146ec565b60405180910390fd5b6112f783838361249c565b505050565b606060008280602001905181019061131491906148b9565b905080915050919050565b61133a83838360405180602001604052806000815250611b85565b505050565b6060600061134d60076123f9565b905060008060005b838110156113f5573373ffffffffffffffffffffffffffffffffffffffff16600b600060018461138591906145ad565b815260200190815260200160002060060160009054906101000a900473ffffffffffffffffffffffffffffffffffffffff1673ffffffffffffffffffffffffffffffffffffffff16036113e2576001836113df91906145ad565b92505b80806113ed90614632565b915050611355565b5060008267ffffffffffffffff81111561141257611411613c5c565b5b60405190808252806020026020018201604052801561144b57816020015b6114386134be565b8152602001906001900390816114305790505b50905060005b848110156118fb573373ffffffffffffffffffffffffffffffffffffffff16600b600060018461148191906145ad565b815260200190815260200160002060060160009054906101000a900473ffffffffffffffffffffffffffffffffffffffff1673ffffffffffffffffffffffffffffffffffffffff16036118e85760006001826114dd91906145ad565b90506000600b6000838152602001908152602001600020905080604051806101400160405290816000820154815260200160018201805461151d906143f5565b80601f0160208091040260200160405190810160405280929190818152602001828054611549906143f5565b80156115965780601f1061156b57610100808354040283529160200191611596565b820191906000526020600020905b81548152906001019060200180831161157957829003601f168201915b505050505081526020016002820180546115af906143f5565b80601f01602080910402602001604051908101604052809291908181526020018280546115db906143f5565b80156116285780601f106115fd57610100808354040283529160200191611628565b820191906000526020600020905b81548152906001019060200180831161160b57829003601f168201915b50505050508152602001600382018054611641906143f5565b80601f016020809104026020016040519081016040528092919081815260200182805461166d906143f5565b80156116ba5780601f1061168f576101008083540402835291602001916116ba565b820191906000526020600020905b81548152906001019060200180831161169d57829003601f168201915b505050505081526020016004820180546116d3906143f5565b80601f01602080910402602001604051908101604052809291908181526020018280546116ff906143f5565b801561174c5780601f106117215761010080835404028352916020019161174c565b820191906000526020600020905b81548152906001019060200180831161172f57829003601f168201915b50505050508152602001600582018054611765906143f5565b80601f0160208091040260200160405190810160405280929190818152602001828054611791906143f5565b80156117de5780601f106117b3576101008083540402835291602001916117de565b820191906000526020600020905b8154815290600101906020018083116117c157829003601f168201915b505050505081526020016006820160009054906101000a900473ffffffffffffffffffffffffffffffffffffffff1673ffffffffffffffffffffffffffffffffffffffff1673ffffffffffffffffffffffffffffffffffffffff1681526020016007820160009054906101000a900473ffffffffffffffffffffffffffffffffffffffff1673ffffffffffffffffffffffffffffffffffffffff1673ffffffffffffffffffffffffffffffffffffffff168152602001600882015481526020016009820160009054906101000a900460ff1615151515815250508486815181106118cb576118ca614603565b5b60200260200101819052506001856118e391906145ad565b945050505b80806118f390614632565b915050611451565b508094505050505090565b60008061191283612795565b9050600073ffffffffffffffffffffffffffffffffffffffff168173ffffffffffffffffffffffffffffffffffffffff1603611983576040517f08c379a000000000000000000000000000000000000000000000000000000000815260040161197a9061494e565b60405180910390fd5b80915050919050565b60008073ffffffffffffffffffffffffffffffffffffffff168273ffffffffffffffffffffffffffffffffffffffff16036119fc576040517f08c379a00000000000000000000000000000000000000000000000000000000081526004016119f3906149e0565b60405180910390fd5b600360008373ffffffffffffffffffffffffffffffffffffffff1673ffffffffffffffffffffffffffffffffffffffff168152602001908152602001600020549050919050565b606060018054611a52906143f5565b80601f0160208091040260200160405190810160405280929190818152602001828054611a7e906143f5565b8015611acb5780601f10611aa057610100808354040283529160200191611acb565b820191906000526020600020905b815481529060010190602001808311611aae57829003601f168201915b5050505050905090565b611ae7611ae0612338565b83836127d2565b5050565b3373ffffffffffffffffffffffffffffffffffffffff16600a60009054906101000a900473ffffffffffffffffffffffffffffffffffffffff1673ffffffffffffffffffffffffffffffffffffffff1614611b7b576040517f08c379a0000000000000000000000000000000000000000000000000000000008152600401611b7290614a72565b60405180910390fd5b8060098190555050565b611b96611b90612338565b83612407565b611bd5576040517f08c379a0000000000000000000000000000000000000000000000000000000008152600401611bcc906146ec565b60405180910390fd5b611be18484848461293e565b50505050565b6000600b60008381526020019081526020016000206008015490506000600b600084815260200190815260200160002060060160009054906101000a900473ffffffffffffffffffffffffffffffffffffffff169050813414611c7f576040517f08c379a0000000000000000000000000000000000000000000000000000000008152600401611c7690614b04565b60405180910390fd5b33600b600085815260200190815260200160002060070160006101000a81548173ffffffffffffffffffffffffffffffffffffffff021916908373ffffffffffffffffffffffffffffffffffffffff1602179055506001600b600085815260200190815260200160002060090160006101000a81548160ff0219169083151502179055506000600b600085815260200190815260200160002060060160006101000a81548173ffffffffffffffffffffffffffffffffffffffff021916908373ffffffffffffffffffffffffffffffffffffffff160217905550611d63600861299a565b611d6e30338561249c565b600a60009054906101000a900473ffffffffffffffffffffffffffffffffffffffff1673ffffffffffffffffffffffffffffffffffffffff166108fc6009549081150290604051600060405180830381858888f19350505050158015611dd8573d6000803e3d6000fd5b508073ffffffffffffffffffffffffffffffffffffffff166108fc349081150290604051600060405180830381858888f19350505050158015611e1f573d6000803e3d6000fd5b50505050565b6060611e30826122ed565b6000600660008481526020019081526020016000208054611e50906143f5565b80601f0160208091040260200160405190810160405280929190818152602001828054611e7c906143f5565b8015611ec95780601f10611e9e57610100808354040283529160200191611ec9565b820191906000526020600020905b815481529060010190602001808311611eac57829003601f168201915b505050505090506000611eda6129b0565b90506000815103611eef578192505050611f32565b600082511115611f24578082604051602001611f0c929190614b60565b60405160208183030381529060405292505050611f32565b611f2d846129c7565b925050505b919050565b3373ffffffffffffffffffffffffffffffffffffffff16600b600084815260200190815260200160002060070160009054906101000a900473ffffffffffffffffffffffffffffffffffffffff1673ffffffffffffffffffffffffffffffffffffffff1614611fdb576040517f08c379a0000000000000000000000000000000000000000000000000000000008152600401611fd290614bf6565b60405180910390fd5b600954341461201f576040517f08c379a000000000000000000000000000000000000000000000000000000000815260040161201690614c88565b60405180910390fd5b6000600b600084815260200190815260200160002060090160006101000a81548160ff02191690831515021790555080600b60008481526020019081526020016000206008018190555033600b600084815260200190815260200160002060060160006101000a81548173ffffffffffffffffffffffffffffffffffffffff021916908373ffffffffffffffffffffffffffffffffffffffff16021790555030600b600084815260200190815260200160002060070160006101000a81548173ffffffffffffffffffffffffffffffffffffffff021916908373ffffffffffffffffffffffffffffffffffffffff16021790555061211d6008612a2f565b61212833308461249c565b5050565b6000600560008473ffffffffffffffffffffffffffffffffffffffff1673ffffffffffffffffffffffffffffffffffffffff16815260200190815260200160002060008373ffffffffffffffffffffffffffffffffffffffff1673ffffffffffffffffffffffffffffffffffffffff16815260200190815260200160002060009054906101000a900460ff16905092915050565b60006121cc600761299a565b60006121d860076123f9565b90506121e43382612a8b565b6121ee8189612ca8565b6121fd81898989898989612d53565b809150509695505050505050565b60007f80ac58cd000000000000000000000000000000000000000000000000000000007bffffffffffffffffffffffffffffffffffffffffffffffffffffffff1916827bffffffffffffffffffffffffffffffffffffffffffffffffffffffff191614806122d657507f5b5e139f000000000000000000000000000000000000000000000000000000007bffffffffffffffffffffffffffffffffffffffffffffffffffffffff1916827bffffffffffffffffffffffffffffffffffffffffffffffffffffffff1916145b806122e657506122e58261303c565b5b9050919050565b6122f6816130a6565b612335576040517f08c379a000000000000000000000000000000000000000000000000000000000815260040161232c9061494e565b60405180910390fd5b50565b600033905090565b816004600083815260200190815260200160002060006101000a81548173ffffffffffffffffffffffffffffffffffffffff021916908373ffffffffffffffffffffffffffffffffffffffff160217905550808273ffffffffffffffffffffffffffffffffffffffff166123b383611906565b73ffffffffffffffffffffffffffffffffffffffff167f8c5be1e5ebec7d5bd14f71427d1e84f3dd0314c0f7b2291e5b200ac8c7c3b92560405160405180910390a45050565b600081600001549050919050565b60008061241383611906565b90508073ffffffffffffffffffffffffffffffffffffffff168473ffffffffffffffffffffffffffffffffffffffff1614806124555750612454818561212c565b5b8061249357508373ffffffffffffffffffffffffffffffffffffffff1661247b8461062b565b73ffffffffffffffffffffffffffffffffffffffff16145b91505092915050565b8273ffffffffffffffffffffffffffffffffffffffff166124bc82611906565b73ffffffffffffffffffffffffffffffffffffffff1614612512576040517f08c379a000000000000000000000000000000000000000000000000000000000815260040161250990614d1a565b60405180910390fd5b600073ffffffffffffffffffffffffffffffffffffffff168273ffffffffffffffffffffffffffffffffffffffff1603612581576040517f08c379a000000000000000000000000000000000000000000000000000000000815260040161257890614dac565b60405180910390fd5b61258e83838360016130e7565b8273ffffffffffffffffffffffffffffffffffffffff166125ae82611906565b73ffffffffffffffffffffffffffffffffffffffff1614612604576040517f08c379a00000000000000000000000000000000000000000000000000000000081526004016125fb90614d1a565b60405180910390fd5b6004600082815260200190815260200160002060006101000a81549073ffffffffffffffffffffffffffffffffffffffff02191690556001600360008573ffffffffffffffffffffffffffffffffffffffff1673ffffffffffffffffffffffffffffffffffffffff168152602001908152602001600020600082825403925050819055506001600360008473ffffffffffffffffffffffffffffffffffffffff1673ffffffffffffffffffffffffffffffffffffffff16815260200190815260200160002060008282540192505081905550816002600083815260200190815260200160002060006101000a81548173ffffffffffffffffffffffffffffffffffffffff021916908373ffffffffffffffffffffffffffffffffffffffff160217905550808273ffffffffffffffffffffffffffffffffffffffff168473ffffffffffffffffffffffffffffffffffffffff167fddf252ad1be2c89b69c2b068fc378daa952ba7f163c4a11628f55a4df523b3ef60405160405180910390a461279083838360016130ed565b505050565b60006002600083815260200190815260200160002060009054906101000a900473ffffffffffffffffffffffffffffffffffffffff169050919050565b8173ffffffffffffffffffffffffffffffffffffffff168373ffffffffffffffffffffffffffffffffffffffff1603612840576040517f08c379a000000000000000000000000000000000000000000000000000000000815260040161283790614e18565b60405180910390fd5b80600560008573ffffffffffffffffffffffffffffffffffffffff1673ffffffffffffffffffffffffffffffffffffffff16815260200190815260200160002060008473ffffffffffffffffffffffffffffffffffffffff1673ffffffffffffffffffffffffffffffffffffffff16815260200190815260200160002060006101000a81548160ff0219169083151502179055508173ffffffffffffffffffffffffffffffffffffffff168373ffffffffffffffffffffffffffffffffffffffff167f17307eab39ab6107e8899845ad3d59bd9653f200f220920489ca2b5937696c3183604051612931919061371c565b60405180910390a3505050565b61294984848461249c565b612955848484846130f3565b612994576040517f08c379a000000000000000000000000000000000000000000000000000000000815260040161298b90614eaa565b60405180910390fd5b50505050565b6001816000016000828254019250508190555050565b606060405180602001604052806000815250905090565b60606129d2826122ed565b60006129dc6129b0565b905060008151116129fc5760405180602001604052806000815250612a27565b80612a068461327a565b604051602001612a17929190614b60565b6040516020818303038152906040525b915050919050565b60008160000154905060008111612a7b576040517f08c379a0000000000000000000000000000000000000000000000000000000008152600401612a7290614f16565b60405180910390fd5b6001810382600001819055505050565b600073ffffffffffffffffffffffffffffffffffffffff168273ffffffffffffffffffffffffffffffffffffffff1603612afa576040517f08c379a0000000000000000000000000000000000000000000000000000000008152600401612af190614f82565b60405180910390fd5b612b03816130a6565b15612b43576040517f08c379a0000000000000000000000000000000000000000000000000000000008152600401612b3a90614fee565b60405180910390fd5b612b516000838360016130e7565b612b5a816130a6565b15612b9a576040517f08c379a0000000000000000000000000000000000000000000000000000000008152600401612b9190614fee565b60405180910390fd5b6001600360008473ffffffffffffffffffffffffffffffffffffffff1673ffffffffffffffffffffffffffffffffffffffff16815260200190815260200160002060008282540192505081905550816002600083815260200190815260200160002060006101000a81548173ffffffffffffffffffffffffffffffffffffffff021916908373ffffffffffffffffffffffffffffffffffffffff160217905550808273ffffffffffffffffffffffffffffffffffffffff16600073ffffffffffffffffffffffffffffffffffffffff167fddf252ad1be2c89b69c2b068fc378daa952ba7f163c4a11628f55a4df523b3ef60405160405180910390a4612ca46000838360016130ed565b5050565b612cb1826130a6565b612cf0576040517f08c379a0000000000000000000000000000000000000000000000000000000008152600401612ce790615080565b60405180910390fd5b80600660008481526020019081526020016000209080519060200190612d1792919061353f565b507ff8e1a15aba9398e019f0b49df1a4fde98ee17ae345cb5f6b5e2c27f5033e8ce782604051612d479190613be4565b60405180910390a15050565b60008111612d96576040517f08c379a0000000000000000000000000000000000000000000000000000000008152600401612d8d906150ec565b60405180910390fd5b6009543414612dda576040517f08c379a0000000000000000000000000000000000000000000000000000000008152600401612dd190614c88565b60405180910390fd5b600082604051602001612ded9190613ed6565b60405160208183030381529060405290506040518061014001604052808981526020018881526020018781526020018681526020018581526020018281526020013373ffffffffffffffffffffffffffffffffffffffff1681526020013073ffffffffffffffffffffffffffffffffffffffff16815260200183815260200160001515815250600b60008a8152602001908152602001600020600082015181600001556020820151816001019080519060200190612eac92919061353f565b506040820151816002019080519060200190612ec992919061353f565b506060820151816003019080519060200190612ee692919061353f565b506080820151816004019080519060200190612f0392919061353f565b5060a0820151816005019080519060200190612f209291906135c5565b5060c08201518160060160006101000a81548173ffffffffffffffffffffffffffffffffffffffff021916908373ffffffffffffffffffffffffffffffffffffffff16021790555060e08201518160070160006101000a81548173ffffffffffffffffffffffffffffffffffffffff021916908373ffffffffffffffffffffffffffffffffffffffff16021790555061010082015181600801556101208201518160090160006101000a81548160ff021916908315150217905550905050612fe933308a61249c565b877fc8beffe35d06869501cb0d329dd2e20c3f7ae6522feeb379ff48c882db06f179888888888633308a600060405161302a99989796959493929190615156565b60405180910390a25050505050505050565b60007f01ffc9a7000000000000000000000000000000000000000000000000000000007bffffffffffffffffffffffffffffffffffffffffffffffffffffffff1916827bffffffffffffffffffffffffffffffffffffffffffffffffffffffff1916149050919050565b60008073ffffffffffffffffffffffffffffffffffffffff166130c883612795565b73ffffffffffffffffffffffffffffffffffffffff1614159050919050565b50505050565b50505050565b60006131148473ffffffffffffffffffffffffffffffffffffffff16613348565b1561326d578373ffffffffffffffffffffffffffffffffffffffff1663150b7a0261313d612338565b8786866040518563ffffffff1660e01b815260040161315f9493929190615206565b6020604051808303816000875af192505050801561319b57506040513d601f19601f820116820180604052508101906131989190615267565b60015b61321d573d80600081146131cb576040519150601f19603f3d011682016040523d82523d6000602084013e6131d0565b606091505b506000815103613215576040517f08c379a000000000000000000000000000000000000000000000000000000000815260040161320c90614eaa565b60405180910390fd5b805181602001fd5b63150b7a0260e01b7bffffffffffffffffffffffffffffffffffffffffffffffffffffffff1916817bffffffffffffffffffffffffffffffffffffffffffffffffffffffff191614915050613272565b600190505b949350505050565b6060600060016132898461336b565b01905060008167ffffffffffffffff8111156132a8576132a7613c5c565b5b6040519080825280601f01601f1916602001820160405280156132da5781602001600182028036833780820191505090505b509050600082602001820190505b60011561333d578080600190039150507f3031323334353637383961626364656600000000000000000000000000000000600a86061a8153600a858161333157613330615294565b5b049450600085036132e8575b819350505050919050565b6000808273ffffffffffffffffffffffffffffffffffffffff163b119050919050565b600080600090507a184f03e93ff9f4daa797ed6e38ed64bf6a1f01000000000000000083106133c9577a184f03e93ff9f4daa797ed6e38ed64bf6a1f01000000000000000083816133bf576133be615294565b5b0492506040810190505b6d04ee2d6d415b85acef81000000008310613406576d04ee2d6d415b85acef810000000083816133fc576133fb615294565b5b0492506020810190505b662386f26fc10000831061343557662386f26fc10000838161342b5761342a615294565b5b0492506010810190505b6305f5e100831061345e576305f5e100838161345457613453615294565b5b0492506008810190505b612710831061348357612710838161347957613478615294565b5b0492506004810190505b606483106134a6576064838161349c5761349b615294565b5b0492506002810190505b600a83106134b5576001810190505b80915050919050565b604051806101400160405280600081526020016060815260200160608152602001606081526020016060815260200160608152602001600073ffffffffffffffffffffffffffffffffffffffff168152602001600073ffffffffffffffffffffffffffffffffffffffff168152602001600081526020016000151581525090565b82805461354b906143f5565b90600052602060002090601f01602090048101928261356d57600085556135b4565b82601f1061358657805160ff19168380011785556135b4565b828001600101855582156135b4579182015b828111156135b3578251825591602001919060010190613598565b5b5090506135c1919061364b565b5090565b8280546135d1906143f5565b90600052602060002090601f0160209004810192826135f3576000855561363a565b82601f1061360c57805160ff191683800117855561363a565b8280016001018555821561363a579182015b8281111561363957825182559160200191906001019061361e565b5b509050613647919061364b565b5090565b5b8082111561366457600081600090555060010161364c565b5090565b6000604051905090565b600080fd5b600080fd5b60007fffffffff0000000000000000000000000000000000000000000000000000000082169050919050565b6136b18161367c565b81146136bc57600080fd5b50565b6000813590506136ce816136a8565b92915050565b6000602082840312156136ea576136e9613672565b5b60006136f8848285016136bf565b91505092915050565b60008115159050919050565b61371681613701565b82525050565b6000602082019050613731600083018461370d565b92915050565b600081519050919050565b600082825260208201905092915050565b60005b83811015613771578082015181840152602081019050613756565b83811115613780576000848401525b50505050565b6000601f19601f8301169050919050565b60006137a282613737565b6137ac8185613742565b93506137bc818560208601613753565b6137c581613786565b840191505092915050565b600060208201905081810360008301526137ea8184613797565b905092915050565b6000819050919050565b613805816137f2565b811461381057600080fd5b50565b600081359050613822816137fc565b92915050565b60006020828403121561383e5761383d613672565b5b600061384c84828501613813565b91505092915050565b600073ffffffffffffffffffffffffffffffffffffffff82169050919050565b600061388082613855565b9050919050565b61389081613875565b82525050565b60006020820190506138ab6000830184613887565b92915050565b6138ba81613875565b81146138c557600080fd5b50565b6000813590506138d7816138b1565b92915050565b600080604083850312156138f4576138f3613672565b5b6000613902858286016138c8565b925050602061391385828601613813565b9150509250929050565b600081519050919050565b600082825260208201905092915050565b6000819050602082019050919050565b613952816137f2565b82525050565b600082825260208201905092915050565b600061397482613737565b61397e8185613958565b935061398e818560208601613753565b61399781613786565b840191505092915050565b600081519050919050565b600082825260208201905092915050565b60006139c9826139a2565b6139d381856139ad565b93506139e3818560208601613753565b6139ec81613786565b840191505092915050565b6000613a0282613855565b9050919050565b613a12816139f7565b82525050565b613a2181613701565b82525050565b600061014083016000830151613a406000860182613949565b5060208301518482036020860152613a588282613969565b91505060408301518482036040860152613a728282613969565b91505060608301518482036060860152613a8c8282613969565b91505060808301518482036080860152613aa68282613969565b91505060a083015184820360a0860152613ac082826139be565b91505060c0830151613ad560c0860182613a09565b5060e0830151613ae860e0860182613a09565b50610100830151613afd610100860182613949565b50610120830151613b12610120860182613a18565b508091505092915050565b6000613b298383613a27565b905092915050565b6000602082019050919050565b6000613b498261391d565b613b538185613928565b935083602082028501613b6585613939565b8060005b85811015613ba15784840389528151613b828582613b1d565b9450613b8d83613b31565b925060208a01995050600181019050613b69565b50829750879550505050505092915050565b60006020820190508181036000830152613bcd8184613b3e565b905092915050565b613bde816137f2565b82525050565b6000602082019050613bf96000830184613bd5565b92915050565b600080600060608486031215613c1857613c17613672565b5b6000613c26868287016138c8565b9350506020613c37868287016138c8565b9250506040613c4886828701613813565b9150509250925092565b600080fd5b600080fd5b7f4e487b7100000000000000000000000000000000000000000000000000000000600052604160045260246000fd5b613c9482613786565b810181811067ffffffffffffffff82111715613cb357613cb2613c5c565b5b80604052505050565b6000613cc6613668565b9050613cd28282613c8b565b919050565b600067ffffffffffffffff821115613cf257613cf1613c5c565b5b613cfb82613786565b9050602081019050919050565b82818337600083830152505050565b6000613d2a613d2584613cd7565b613cbc565b905082815260208101848484011115613d4657613d45613c57565b5b613d51848285613d08565b509392505050565b600082601f830112613d6e57613d6d613c52565b5b8135613d7e848260208601613d17565b91505092915050565b600060208284031215613d9d57613d9c613672565b5b600082013567ffffffffffffffff811115613dbb57613dba613677565b5b613dc784828501613d59565b91505092915050565b600081519050919050565b600082825260208201905092915050565b6000819050602082019050919050565b60006040830160008301518482036000860152613e198282613969565b91505060208301518482036020860152613e338282613969565b9150508091505092915050565b6000613e4c8383613dfc565b905092915050565b6000602082019050919050565b6000613e6c82613dd0565b613e768185613ddb565b935083602082028501613e8885613dec565b8060005b85811015613ec45784840389528151613ea58582613e40565b9450613eb083613e54565b925060208a01995050600181019050613e8c565b50829750879550505050505092915050565b60006020820190508181036000830152613ef08184613e61565b905092915050565b600060208284031215613f0e57613f0d613672565b5b6000613f1c848285016138c8565b91505092915050565b613f2e81613701565b8114613f3957600080fd5b50565b600081359050613f4b81613f25565b92915050565b60008060408385031215613f6857613f67613672565b5b6000613f76858286016138c8565b9250506020613f8785828601613f3c565b9150509250929050565b60008060008060808587031215613fab57613faa613672565b5b6000613fb9878288016138c8565b9450506020613fca878288016138c8565b9350506040613fdb87828801613813565b925050606085013567ffffffffffffffff811115613ffc57613ffb613677565b5b61400887828801613d59565b91505092959194509250565b6000806040838503121561402b5761402a613672565b5b600061403985828601613813565b925050602061404a85828601613813565b9150509250929050565b6000806040838503121561406b5761406a613672565b5b6000614079858286016138c8565b925050602061408a858286016138c8565b9150509250929050565b600067ffffffffffffffff8211156140af576140ae613c5c565b5b6140b882613786565b9050602081019050919050565b60006140d86140d384614094565b613cbc565b9050828152602081018484840111156140f4576140f3613c57565b5b6140ff848285613d08565b509392505050565b600082601f83011261411c5761411b613c52565b5b813561412c8482602086016140c5565b91505092915050565b600067ffffffffffffffff8211156141505761414f613c5c565b5b602082029050602081019050919050565b600080fd5b600080fd5b600080fd5b60006040828403121561418657614185614166565b5b6141906040613cbc565b9050600082013567ffffffffffffffff8111156141b0576141af61416b565b5b6141bc84828501614107565b600083015250602082013567ffffffffffffffff8111156141e0576141df61416b565b5b6141ec84828501614107565b60208301525092915050565b600061420b61420684614135565b613cbc565b9050808382526020820190506020840283018581111561422e5761422d614161565b5b835b8181101561427557803567ffffffffffffffff81111561425357614252613c52565b5b8086016142608982614170565b85526020850194505050602081019050614230565b5050509392505050565b600082601f83011261429457614293613c52565b5b81356142a48482602086016141f8565b91505092915050565b60008060008060008060c087890312156142ca576142c9613672565b5b600087013567ffffffffffffffff8111156142e8576142e7613677565b5b6142f489828a01614107565b965050602087013567ffffffffffffffff81111561431557614314613677565b5b61432189828a01614107565b955050604087013567ffffffffffffffff81111561434257614341613677565b5b61434e89828a01614107565b945050606087013567ffffffffffffffff81111561436f5761436e613677565b5b61437b89828a01614107565b935050608087013567ffffffffffffffff81111561439c5761439b613677565b5b6143a889828a0161427f565b92505060a06143b989828a01613813565b9150509295509295509295565b7f4e487b7100000000000000000000000000000000000000000000000000000000600052602260045260246000fd5b6000600282049050600182168061440d57607f821691505b6020821081036144205761441f6143c6565b5b50919050565b7f4552433732313a20617070726f76616c20746f2063757272656e74206f776e6560008201527f7200000000000000000000000000000000000000000000000000000000000000602082015250565b6000614482602183613742565b915061448d82614426565b604082019050919050565b600060208201905081810360008301526144b181614475565b9050919050565b7f4552433732313a20617070726f76652063616c6c6572206973206e6f7420746f60008201527f6b656e206f776e6572206f7220617070726f76656420666f7220616c6c000000602082015250565b6000614514603d83613742565b915061451f826144b8565b604082019050919050565b6000602082019050818103600083015261454381614507565b9050919050565b7f4e487b7100000000000000000000000000000000000000000000000000000000600052601160045260246000fd5b6000614584826137f2565b915061458f836137f2565b9250828210156145a2576145a161454a565b5b828203905092915050565b60006145b8826137f2565b91506145c3836137f2565b9250827fffffffffffffffffffffffffffffffffffffffffffffffffffffffffffffffff038211156145f8576145f761454a565b5b828201905092915050565b7f4e487b7100000000000000000000000000000000000000000000000000000000600052603260045260246000fd5b600061463d826137f2565b91507fffffffffffffffffffffffffffffffffffffffffffffffffffffffffffffffff820361466f5761466e61454a565b5b600182019050919050565b7f4552433732313a2063616c6c6572206973206e6f7420746f6b656e206f776e6560008201527f72206f7220617070726f76656400000000000000000000000000000000000000602082015250565b60006146d6602d83613742565b91506146e18261467a565b604082019050919050565b60006020820190508181036000830152614705816146c9565b9050919050565b600061471f61471a84614094565b613cbc565b90508281526020810184848401111561473b5761473a613c57565b5b614746848285613753565b509392505050565b600082601f83011261476357614762613c52565b5b815161477384826020860161470c565b91505092915050565b60006040828403121561479257614791614166565b5b61479c6040613cbc565b9050600082015167ffffffffffffffff8111156147bc576147bb61416b565b5b6147c88482850161474e565b600083015250602082015167ffffffffffffffff8111156147ec576147eb61416b565b5b6147f88482850161474e565b60208301525092915050565b600061481761481284614135565b613cbc565b9050808382526020820190506020840283018581111561483a57614839614161565b5b835b8181101561488157805167ffffffffffffffff81111561485f5761485e613c52565b5b80860161486c898261477c565b8552602085019450505060208101905061483c565b5050509392505050565b600082601f8301126148a05761489f613c52565b5b81516148b0848260208601614804565b91505092915050565b6000602082840312156148cf576148ce613672565b5b600082015167ffffffffffffffff8111156148ed576148ec613677565b5b6148f98482850161488b565b91505092915050565b7f4552433732313a20696e76616c696420746f6b656e2049440000000000000000600082015250565b6000614938601883613742565b915061494382614902565b602082019050919050565b600060208201905081810360008301526149678161492b565b9050919050565b7f4552433732313a2061646472657373207a65726f206973206e6f74206120766160008201527f6c6964206f776e65720000000000000000000000000000000000000000000000602082015250565b60006149ca602983613742565b91506149d58261496e565b604082019050919050565b600060208201905081810360008301526149f9816149bd565b9050919050565b7f4f6e6c79206d61726b6574706c616365206f776e65722063616e20757064617460008201527f65206c697374696e672070726963652e00000000000000000000000000000000602082015250565b6000614a5c603083613742565b9150614a6782614a00565b604082019050919050565b60006020820190508181036000830152614a8b81614a4f565b9050919050565b7f506c65617365207375626d6974207468652061736b696e67207072696365206960008201527f6e206f7264657220746f20636f6d706c65746520746865207075726368617365602082015250565b6000614aee604083613742565b9150614af982614a92565b604082019050919050565b60006020820190508181036000830152614b1d81614ae1565b9050919050565b600081905092915050565b6000614b3a82613737565b614b448185614b24565b9350614b54818560208601613753565b80840191505092915050565b6000614b6c8285614b2f565b9150614b788284614b2f565b91508190509392505050565b7f4f6e6c79206974656d206f776e65722063616e20706572666f726d207468697360008201527f206f7065726174696f6e00000000000000000000000000000000000000000000602082015250565b6000614be0602a83613742565b9150614beb82614b84565b604082019050919050565b60006020820190508181036000830152614c0f81614bd3565b9050919050565b7f5072696365206d75737420626520657175616c20746f206c697374696e67207060008201527f7269636500000000000000000000000000000000000000000000000000000000602082015250565b6000614c72602483613742565b9150614c7d82614c16565b604082019050919050565b60006020820190508181036000830152614ca181614c65565b9050919050565b7f4552433732313a207472616e736665722066726f6d20696e636f72726563742060008201527f6f776e6572000000000000000000000000000000000000000000000000000000602082015250565b6000614d04602583613742565b9150614d0f82614ca8565b604082019050919050565b60006020820190508181036000830152614d3381614cf7565b9050919050565b7f4552433732313a207472616e7366657220746f20746865207a65726f2061646460008201527f7265737300000000000000000000000000000000000000000000000000000000602082015250565b6000614d96602483613742565b9150614da182614d3a565b604082019050919050565b60006020820190508181036000830152614dc581614d89565b9050919050565b7f4552433732313a20617070726f766520746f2063616c6c657200000000000000600082015250565b6000614e02601983613742565b9150614e0d82614dcc565b602082019050919050565b60006020820190508181036000830152614e3181614df5565b9050919050565b7f4552433732313a207472616e7366657220746f206e6f6e20455243373231526560008201527f63656976657220696d706c656d656e7465720000000000000000000000000000602082015250565b6000614e94603283613742565b9150614e9f82614e38565b604082019050919050565b60006020820190508181036000830152614ec381614e87565b9050919050565b7f436f756e7465723a2064656372656d656e74206f766572666c6f770000000000600082015250565b6000614f00601b83613742565b9150614f0b82614eca565b602082019050919050565b60006020820190508181036000830152614f2f81614ef3565b9050919050565b7f4552433732313a206d696e7420746f20746865207a65726f2061646472657373600082015250565b6000614f6c602083613742565b9150614f7782614f36565b602082019050919050565b60006020820190508181036000830152614f9b81614f5f565b9050919050565b7f4552433732313a20746f6b656e20616c7265616479206d696e74656400000000600082015250565b6000614fd8601c83613742565b9150614fe382614fa2565b602082019050919050565b6000602082019050818103600083015261500781614fcb565b9050919050565b7f45524337323155524953746f726167653a2055524920736574206f66206e6f6e60008201527f6578697374656e7420746f6b656e000000000000000000000000000000000000602082015250565b600061506a602e83613742565b91506150758261500e565b604082019050919050565b600060208201905081810360008301526150998161505d565b9050919050565b7f5072696365206d757374206265206174206c6561737420312077656900000000600082015250565b60006150d6601c83613742565b91506150e1826150a0565b602082019050919050565b60006020820190508181036000830152615105816150c9565b9050919050565b600082825260208201905092915050565b6000615128826139a2565b615132818561510c565b9350615142818560208601613753565b61514b81613786565b840191505092915050565b6000610120820190508181036000830152615171818c613797565b90508181036020830152615185818b613797565b90508181036040830152615199818a613797565b905081810360608301526151ad8189613797565b905081810360808301526151c1818861511d565b90506151d060a0830187613887565b6151dd60c0830186613887565b6151ea60e0830185613bd5565b6151f861010083018461370d565b9a9950505050505050505050565b600060808201905061521b6000830187613887565b6152286020830186613887565b6152356040830185613bd5565b8181036060830152615247818461511d565b905095945050505050565b600081519050615261816136a8565b92915050565b60006020828403121561527d5761527c613672565b5b600061528b84828501615252565b91505092915050565b7f4e487b7100000000000000000000000000000000000000000000000000000000600052601260045260246000fdfea2646970667358221220210a4390c446d9bf7d703abb1a8a97ea3551c55d2f234ccc900474023660a5d064736f6c634300080d0033",
  "immutableReferences": {},
  "source": "// SPDX-License-Identifier: MIT\npragma solidity ^0.8.13;\nimport \"@openzeppelin/contracts/utils/Counters.sol\";\nimport \"@openzeppelin/contracts/token/ERC721/extensions/ERC721URIStorage.sol\";\nimport \"@openzeppelin/contracts/token/ERC721/ERC721.sol\";\n\ncontract NFTMarketplace is ERC721URIStorage {\n    using Counters for Counters.Counter;\n    Counters.Counter private _tokenIds;\n    Counters.Counter private _itemsSold;\n    uint256 listingPrice = 100000 wei;\n    address payable owner;\n    mapping(uint256 => MarketItem) private idToMarketItem;\n\n    struct Attribute {\n        string trait;\n        string value;\n    }\n\n    struct MarketItem {\n        uint256 tokenId;\n        string tokenURI;\n        string name;\n        string description;\n        string imageUrl;\n        bytes attributes;\n        address payable seller;\n        address payable owner;\n        uint256 price;\n        bool sold;\n    }\n\n    event MarketItemCreated(\n        uint256 indexed tokenId,\n        string tokenURI,\n        string name,\n        string description,\n        string imageUrl,\n        bytes attributes,\n        address seller,\n        address owner,\n        uint256 price,\n        bool sold\n    );\n\n    constructor() ERC721(\"Metaverse Tokens\", \"METT\") {\n        owner = payable(msg.sender);\n    }\n\n    function updateListingPrice(uint256 _listingPrice) public payable {\n        require(\n            owner == msg.sender,\n            \"Only marketplace owner can update listing price.\"\n        );\n        listingPrice = _listingPrice;\n    }\n\n    function getListingPrice() public view returns (uint256) {\n        return listingPrice;\n    }\n\n    function createToken(\n        string memory tokenURI,\n        string memory name,\n        string memory description,\n        string memory imageUrl,\n        Attribute[] memory attributes,\n        uint256 price\n    ) public payable returns (uint256) {\n        _tokenIds.increment();\n        uint256 newTokenId = _tokenIds.current();\n        _mint(msg.sender, newTokenId);\n        _setTokenURI(newTokenId, tokenURI);\n        createMarketItem(\n            newTokenId,\n            tokenURI,\n            name,\n            description,\n            imageUrl,\n            attributes,\n            price\n        );\n        return newTokenId;\n    }\n\n    function createMarketItem(\n        uint256 tokenId,\n        string memory tokenURI,\n        string memory name,\n        string memory description,\n        string memory imageUrl,\n        Attribute[] memory attributes,\n        uint256 price\n    ) private {\n        require(price > 0, \"Price must be at least 1 wei\");\n        require(\n            msg.value == listingPrice,\n            \"Price must be equal to listing price\"\n        );\n\n         bytes memory attributesData = abi.encode(attributes);\n        idToMarketItem[tokenId] = MarketItem(\n            tokenId,\n            tokenURI,\n            name,\n            description,\n            imageUrl,\n            attributesData,\n            payable(msg.sender),\n            payable(address(this)),\n            price,\n            false\n        );\n        _transfer(msg.sender, address(this), tokenId);\n        emit MarketItemCreated(\n            tokenId,\n            tokenURI,\n            name,\n            description,\n            imageUrl,\n            attributesData,\n            msg.sender,\n            address(this),\n            price,\n            false\n        );\n    }\n\n    function resellToken(uint256 tokenId, uint256 price) public payable {\n        require(\n            idToMarketItem[tokenId].owner == msg.sender,\n            \"Only item owner can perform this operation\"\n        );\n        require(\n            msg.value == listingPrice,\n            \"Price must be equal to listing price\"\n        );\n        idToMarketItem[tokenId].sold = false;\n        idToMarketItem[tokenId].price = price;\n        idToMarketItem[tokenId].seller = payable(msg.sender);\n        idToMarketItem[tokenId].owner = payable(address(this));\n        _itemsSold.decrement();\n        _transfer(msg.sender, address(this), tokenId);\n    }\n\n    function createMarketSale(uint256 tokenId) public payable {\n        uint256 price = idToMarketItem[tokenId].price;\n        address payable creator = idToMarketItem[tokenId].seller;\n        require(\n            msg.value == price,\n            \"Please submit the asking price in order to complete the purchase\"\n        );\n        idToMarketItem[tokenId].owner = payable(msg.sender);\n        idToMarketItem[tokenId].sold = true;\n        idToMarketItem[tokenId].seller = payable(address(0));\n        _itemsSold.increment();\n        _transfer(address(this), msg.sender, tokenId);\n        payable(owner).transfer(listingPrice);\n        payable(creator).transfer(msg.value);\n    }\n\n    function fetchMarketItems() public view returns (MarketItem[] memory) {\n        uint256 itemCount = _tokenIds.current();\n        uint256 unsoldItemCount = _tokenIds.current() - _itemsSold.current();\n        uint256 currentIndex = 0;\n        MarketItem[] memory items = new MarketItem[](unsoldItemCount);\n        for (uint256 i = 0; i < itemCount; i++) {\n            if (idToMarketItem[i + 1].owner == address(this)) {\n                uint256 currentId = i + 1;\n                MarketItem storage currentItem = idToMarketItem[currentId];\n                items[currentIndex] = currentItem;\n                currentIndex += 1;\n            }\n        }\n        return items;\n    }\n\n    function fetchMyNFTs() public view returns (MarketItem[] memory) {\n        uint256 totalItemCount = _tokenIds.current();\n        uint256 itemCount = 0;\n        uint256 currentIndex = 0;\n        for (uint256 i = 0; i < totalItemCount; i++) {\n            // check if nft is mine\n            if (idToMarketItem[i + 1].owner == msg.sender) {\n                itemCount += 1;\n            }\n        }\n        MarketItem[] memory items = new MarketItem[](itemCount);\n        for (uint256 i = 0; i < totalItemCount; i++) {\n            if (idToMarketItem[i + 1].owner == msg.sender) {\n                uint256 currentId = i + 1;\n                MarketItem storage currentItem = idToMarketItem[currentId];\n                items[currentIndex] = currentItem;\n                currentIndex += 1;\n            }\n        }\n        return items;\n    }\n\n    function fetchItemsListed() public view returns (MarketItem[] memory) {\n        uint256 totalItemCount = _tokenIds.current();\n        uint256 itemCount = 0;\n        uint256 currentIndex = 0;\n        for (uint256 i = 0; i < totalItemCount; i++) {\n            if (idToMarketItem[i + 1].seller == msg.sender) {\n                itemCount += 1;\n            }\n        }\n        MarketItem[] memory items = new MarketItem[](itemCount);\n        for (uint256 i = 0; i < totalItemCount; i++) {\n            if (idToMarketItem[i + 1].seller == msg.sender) {\n                uint256 currentId = i + 1;\n                MarketItem storage currentItem = idToMarketItem[currentId];\n                items[currentIndex] = currentItem;\n                currentIndex += 1;\n            }\n        }\n        return items;\n    }\n\n    function decodeAttributes(bytes memory attributesData) public pure returns (Attribute[] memory) {\n        Attribute[] memory attributes = abi.decode(attributesData, (Attribute[]));\n        return attributes;\n    }\n}\n",
  "sourcePath": "/Users/lutfiikbalmajid/hasdev/workshop-blockchain/truffle/contracts/NFTMarketplace.sol",
  "compiler": {
    "name": "solc",
    "version": "0.8.13+commit.abaa5c0e.Emscripten.clang"
  },
  "schemaVersion": "3.4.16",
  "updatedAt": "2024-02-05T07:37:19.253Z",
  "networkType": "ethereum",
  "devdoc": {
    "kind": "dev",
    "methods": {
      "approve(address,uint256)": {
        "details": "See {IERC721-approve}."
      },
      "balanceOf(address)": {
        "details": "See {IERC721-balanceOf}."
      },
      "getApproved(uint256)": {
        "details": "See {IERC721-getApproved}."
      },
      "isApprovedForAll(address,address)": {
        "details": "See {IERC721-isApprovedForAll}."
      },
      "name()": {
        "details": "See {IERC721Metadata-name}."
      },
      "ownerOf(uint256)": {
        "details": "See {IERC721-ownerOf}."
      },
      "safeTransferFrom(address,address,uint256)": {
        "details": "See {IERC721-safeTransferFrom}."
      },
      "safeTransferFrom(address,address,uint256,bytes)": {
        "details": "See {IERC721-safeTransferFrom}."
      },
      "setApprovalForAll(address,bool)": {
        "details": "See {IERC721-setApprovalForAll}."
      },
      "supportsInterface(bytes4)": {
        "details": "See {IERC165-supportsInterface}"
      },
      "symbol()": {
        "details": "See {IERC721Metadata-symbol}."
      },
      "tokenURI(uint256)": {
        "details": "See {IERC721Metadata-tokenURI}."
      },
      "transferFrom(address,address,uint256)": {
        "details": "See {IERC721-transferFrom}."
      }
    },
    "version": 1
  },
  "userdoc": {
    "kind": "user",
    "methods": {},
    "version": 1
  }
}