{
  "contractName": "SimpleVoting",
  "abi": [
    {
      "anonymous": false,
      "inputs": [
        {
          "indexed": true,
          "internalType": "uint256",
          "name": "ballotIndex",
          "type": "uint256"
        },
        {
          "indexed": false,
          "internalType": "string",
          "name": "question",
          "type": "string"
        },
        {
          "indexed": false,
          "internalType": "uint256",
          "name": "startTime",
          "type": "uint256"
        },
        {
          "indexed": false,
          "internalType": "uint256",
          "name": "duration",
          "type": "uint256"
        }
      ],
      "name": "BallotCreated",
      "type": "event"
    },
    {
      "anonymous": false,
      "inputs": [
        {
          "indexed": false,
          "internalType": "string[]",
          "name": "options",
          "type": "string[]"
        }
      ],
      "name": "Options",
      "type": "event"
    },
    {
      "anonymous": false,
      "inputs": [
        {
          "indexed": true,
          "internalType": "uint256",
          "name": "ballotIndex",
          "type": "uint256"
        },
        {
          "indexed": true,
          "internalType": "address",
          "name": "voter",
          "type": "address"
        },
        {
          "indexed": false,
          "internalType": "uint256",
          "name": "optionIndex",
          "type": "uint256"
        }
      ],
      "name": "VoteCast",
      "type": "event"
    },
    {
      "inputs": [],
      "name": "counter",
      "outputs": [
        {
          "internalType": "uint256",
          "name": "",
          "type": "uint256"
        }
      ],
      "stateMutability": "view",
      "type": "function",
      "constant": true
    },
    {
      "inputs": [
        {
          "internalType": "uint256",
          "name": "",
          "type": "uint256"
        },
        {
          "internalType": "address",
          "name": "",
          "type": "address"
        }
      ],
      "name": "hasVoted",
      "outputs": [
        {
          "internalType": "bool",
          "name": "",
          "type": "bool"
        }
      ],
      "stateMutability": "view",
      "type": "function",
      "constant": true
    },
    {
      "inputs": [
        {
          "internalType": "string",
          "name": "question_",
          "type": "string"
        },
        {
          "internalType": "string[]",
          "name": "options_",
          "type": "string[]"
        },
        {
          "internalType": "uint256",
          "name": "startTime_",
          "type": "uint256"
        },
        {
          "internalType": "uint256",
          "name": "duration_",
          "type": "uint256"
        }
      ],
      "name": "createBallot",
      "outputs": [],
      "stateMutability": "nonpayable",
      "type": "function"
    },
    {
      "inputs": [
        {
          "internalType": "uint256",
          "name": "index_",
          "type": "uint256"
        }
      ],
      "name": "getBallotByIndex",
      "outputs": [
        {
          "components": [
            {
              "internalType": "string",
              "name": "question",
              "type": "string"
            },
            {
              "internalType": "string[]",
              "name": "options",
              "type": "string[]"
            },
            {
              "internalType": "uint256",
              "name": "startTime",
              "type": "uint256"
            },
            {
              "internalType": "uint256",
              "name": "duration",
              "type": "uint256"
            }
          ],
          "internalType": "struct SimpleVoting.Ballot",
          "name": "ballot",
          "type": "tuple"
        }
      ],
      "stateMutability": "view",
      "type": "function",
      "constant": true
    },
    {
      "inputs": [
        {
          "internalType": "uint256",
          "name": "ballotIndex_",
          "type": "uint256"
        },
        {
          "internalType": "uint256",
          "name": "optionIndex_",
          "type": "uint256"
        }
      ],
      "name": "cast",
      "outputs": [],
      "stateMutability": "nonpayable",
      "type": "function"
    },
    {
      "inputs": [
        {
          "internalType": "uint256",
          "name": "ballotIndex_",
          "type": "uint256"
        },
        {
          "internalType": "uint256",
          "name": "optionIndex_",
          "type": "uint256"
        }
      ],
      "name": "getTally",
      "outputs": [
        {
          "internalType": "uint256",
          "name": "",
          "type": "uint256"
        }
      ],
      "stateMutability": "view",
      "type": "function",
      "constant": true
    },
    {
      "inputs": [
        {
          "internalType": "uint256",
          "name": "ballotIndex_",
          "type": "uint256"
        }
      ],
      "name": "results",
      "outputs": [
        {
          "internalType": "uint256[]",
          "name": "",
          "type": "uint256[]"
        }
      ],
      "stateMutability": "view",
      "type": "function",
      "constant": true
    },
    {
      "inputs": [
        {
          "internalType": "uint256",
          "name": "ballotIndex_",
          "type": "uint256"
        }
      ],
      "name": "winners",
      "outputs": [
        {
          "internalType": "bool[]",
          "name": "",
          "type": "bool[]"
        }
      ],
      "stateMutability": "view",
      "type": "function",
      "constant": true
    }
  ],
  "bytecode": "0x60806040526000805534801561001457600080fd5b50611e7e806100246000396000f3fe608060405234801561001057600080fd5b50600436106100885760003560e01c8063a2fb11751161005b578063a2fb117514610127578063c8b3d5ac14610157578063cdae1fba14610187578063dd2d9cb2146101b757610088565b80631b0c27da1461008d57806343859632146100bd5780635396dd7a146100ed57806361bc221a14610109575b600080fd5b6100a760048036038101906100a291906111ae565b6101d3565b6040516100b49190611299565b60405180910390f35b6100d760048036038101906100d29190611319565b61043b565b6040516100e49190611374565b60405180910390f35b610107600480360381019061010291906115bb565b61046a565b005b610111610705565b60405161011e9190611669565b60405180910390f35b610141600480360381019061013c91906111ae565b61070b565b60405161014e9190611742565b60405180910390f35b610171600480360381019061016c91906111ae565b610a6f565b60405161017e9190611918565b60405180910390f35b6101a1600480360381019061019c919061193a565b610c1b565b6040516101ae9190611669565b60405180910390f35b6101d160048036038101906101cc919061193a565b610c4a565b005b6060600060016000848152602001908152602001600020604051806080016040529081600082018054610205906119a9565b80601f0160208091040260200160405190810160405280929190818152602001828054610231906119a9565b801561027e5780601f106102535761010080835404028352916020019161027e565b820191906000526020600020905b81548152906001019060200180831161026157829003601f168201915b5050505050815260200160018201805480602002602001604051908101604052809291908181526020016000905b828210156103585783829060005260206000200180546102cb906119a9565b80601f01602080910402602001604051908101604052809291908181526020018280546102f7906119a9565b80156103445780601f1061031957610100808354040283529160200191610344565b820191906000526020600020905b81548152906001019060200180831161032757829003601f168201915b5050505050815260200190600101906102ac565b5050505081526020016002820154815260200160038201548152505090506000816020015151905060008167ffffffffffffffff81111561039c5761039b6113aa565b5b6040519080825280602002602001820160405280156103ca5781602001602082028036833780820191505090505b50905060005b8281101561042f57600260008781526020019081526020016000206000828152602001908152602001600020548282815181106104105761040f6119da565b5b602002602001018181525050808061042790611a38565b9150506103d0565b50809350505050919050565b60036020528160005260406000206020528060005260406000206000915091509054906101000a900460ff1681565b600081116104ad576040517f08c379a00000000000000000000000000000000000000000000000000000000081526004016104a490611add565b60405180910390fd5b4282116104ef576040517f08c379a00000000000000000000000000000000000000000000000000000000081526004016104e690611b49565b60405180910390fd5b600283511015610534576040517f08c379a000000000000000000000000000000000000000000000000000000000815260040161052b90611bb5565b60405180910390fd5b60405180608001604052808581526020018481526020018381526020018281525060016000805481526020019081526020016000206000820151816000019080519060200190610585929190610fd5565b5060208201518160010190805190602001906105a292919061105b565b5060408201518160020155606082015181600301559050506000808154809291906105cc90611a38565b91905055506000547f76b097d00078c575e2cd0a604e498b6c341224ad2de91a52231437bbca34d62885848460405161060793929190611c0e565b60405180910390a260006001845161061f9190611c4c565b67ffffffffffffffff811115610638576106376113aa565b5b60405190808252806020026020018201604052801561066b57816020015b60608152602001906001900390816106565790505b50905060005b84518110156106c65784818151811061068d5761068c6119da565b5b60200260200101518282815181106106a8576106a76119da565b5b602002602001018190525080806106be90611a38565b915050610671565b507f0f398b2d61ae5289730ac02451afe6a1e00154ea64b04fa50cd30b82d10eaa3b816040516106f69190611d28565b60405180910390a15050505050565b60005481565b606060006001600084815260200190815260200160002060405180608001604052908160008201805461073d906119a9565b80601f0160208091040260200160405190810160405280929190818152602001828054610769906119a9565b80156107b65780601f1061078b576101008083540402835291602001916107b6565b820191906000526020600020905b81548152906001019060200180831161079957829003601f168201915b5050505050815260200160018201805480602002602001604051908101604052809291908181526020016000905b82821015610890578382906000526020600020018054610803906119a9565b80601f016020809104026020016040519081016040528092919081815260200182805461082f906119a9565b801561087c5780601f106108515761010080835404028352916020019161087c565b820191906000526020600020905b81548152906001019060200180831161085f57829003601f168201915b5050505050815260200190600101906107e4565b5050505081526020016002820154815260200160038201548152505090506000816020015151905060008167ffffffffffffffff8111156108d4576108d36113aa565b5b6040519080825280602002602001820160405280156109025781602001602082028036833780820191505090505b509050600080600090505b838110156109ac576002600088815260200190815260200160002060008281526020019081526020016000205483828151811061094d5761094c6119da565b5b6020026020010181815250508183828151811061096d5761096c6119da565b5b602002602001015111156109995782818151811061098e5761098d6119da565b5b602002602001015191505b80806109a490611a38565b91505061090d565b5060008367ffffffffffffffff8111156109c9576109c86113aa565b5b6040519080825280602002602001820160405280156109f75781602001602082028036833780820191505090505b50905060005b84811015610a615782848281518110610a1957610a186119da565b5b602002602001015103610a4e576001828281518110610a3b57610a3a6119da565b5b6020026020010190151590811515815250505b8080610a5990611a38565b9150506109fd565b508095505050505050919050565b610a776110bb565b60016000838152602001908152602001600020604051806080016040529081600082018054610aa5906119a9565b80601f0160208091040260200160405190810160405280929190818152602001828054610ad1906119a9565b8015610b1e5780601f10610af357610100808354040283529160200191610b1e565b820191906000526020600020905b815481529060010190602001808311610b0157829003601f168201915b5050505050815260200160018201805480602002602001604051908101604052809291908181526020016000905b82821015610bf8578382906000526020600020018054610b6b906119a9565b80601f0160208091040260200160405190810160405280929190818152602001828054610b97906119a9565b8015610be45780601f10610bb957610100808354040283529160200191610be4565b820191906000526020600020905b815481529060010190602001808311610bc757829003601f168201915b505050505081526020019060010190610b4c565b505050508152602001600282015481526020016003820154815250509050919050565b600060026000848152602001908152602001600020600083815260200190815260200160002054905092915050565b6003600083815260200190815260200160002060003373ffffffffffffffffffffffffffffffffffffffff1673ffffffffffffffffffffffffffffffffffffffff16815260200190815260200160002060009054906101000a900460ff1615610ce8576040517f08c379a0000000000000000000000000000000000000000000000000000000008152600401610cdf90611dbc565b60405180910390fd5b600060016000848152602001908152602001600020604051806080016040529081600082018054610d18906119a9565b80601f0160208091040260200160405190810160405280929190818152602001828054610d44906119a9565b8015610d915780601f10610d6657610100808354040283529160200191610d91565b820191906000526020600020905b815481529060010190602001808311610d7457829003601f168201915b5050505050815260200160018201805480602002602001604051908101604052809291908181526020016000905b82821015610e6b578382906000526020600020018054610dde906119a9565b80601f0160208091040260200160405190810160405280929190818152602001828054610e0a906119a9565b8015610e575780601f10610e2c57610100808354040283529160200191610e57565b820191906000526020600020905b815481529060010190602001808311610e3a57829003601f168201915b505050505081526020019060010190610dbf565b50505050815260200160028201548152602001600382015481525050905080606001518160400151610e9d9190611c4c565b4210610ede576040517f08c379a0000000000000000000000000000000000000000000000000000000008152600401610ed590611e28565b60405180910390fd5b6002600084815260200190815260200160002060008381526020019081526020016000206000815480929190610f1390611a38565b919050555060016003600085815260200190815260200160002060003373ffffffffffffffffffffffffffffffffffffffff1673ffffffffffffffffffffffffffffffffffffffff16815260200190815260200160002060006101000a81548160ff0219169083151502179055503373ffffffffffffffffffffffffffffffffffffffff16837f2acce567deca3aabf56327adbb4524bd5318936eaefa69e3a5208ffda0cfec0984604051610fc89190611669565b60405180910390a3505050565b828054610fe1906119a9565b90600052602060002090601f016020900481019282611003576000855561104a565b82601f1061101c57805160ff191683800117855561104a565b8280016001018555821561104a579182015b8281111561104957825182559160200191906001019061102e565b5b50905061105791906110e3565b5090565b8280548282559060005260206000209081019282156110aa579160200282015b828111156110a9578251829080519060200190611099929190610fd5565b509160200191906001019061107b565b5b5090506110b79190611100565b5090565b6040518060800160405280606081526020016060815260200160008152602001600081525090565b5b808211156110fc5760008160009055506001016110e4565b5090565b5b8082111561112057600081816111179190611124565b50600101611101565b5090565b508054611130906119a9565b6000825580601f106111425750611161565b601f01602090049060005260206000209081019061116091906110e3565b5b50565b6000604051905090565b600080fd5b600080fd5b6000819050919050565b61118b81611178565b811461119657600080fd5b50565b6000813590506111a881611182565b92915050565b6000602082840312156111c4576111c361116e565b5b60006111d284828501611199565b91505092915050565b600081519050919050565b600082825260208201905092915050565b6000819050602082019050919050565b61121081611178565b82525050565b60006112228383611207565b60208301905092915050565b6000602082019050919050565b6000611246826111db565b61125081856111e6565b935061125b836111f7565b8060005b8381101561128c5781516112738882611216565b975061127e8361122e565b92505060018101905061125f565b5085935050505092915050565b600060208201905081810360008301526112b3818461123b565b905092915050565b600073ffffffffffffffffffffffffffffffffffffffff82169050919050565b60006112e6826112bb565b9050919050565b6112f6816112db565b811461130157600080fd5b50565b600081359050611313816112ed565b92915050565b600080604083850312156113305761132f61116e565b5b600061133e85828601611199565b925050602061134f85828601611304565b9150509250929050565b60008115159050919050565b61136e81611359565b82525050565b60006020820190506113896000830184611365565b92915050565b600080fd5b600080fd5b6000601f19601f8301169050919050565b7f4e487b7100000000000000000000000000000000000000000000000000000000600052604160045260246000fd5b6113e282611399565b810181811067ffffffffffffffff82111715611401576114006113aa565b5b80604052505050565b6000611414611164565b905061142082826113d9565b919050565b600067ffffffffffffffff8211156114405761143f6113aa565b5b61144982611399565b9050602081019050919050565b82818337600083830152505050565b600061147861147384611425565b61140a565b90508281526020810184848401111561149457611493611394565b5b61149f848285611456565b509392505050565b600082601f8301126114bc576114bb61138f565b5b81356114cc848260208601611465565b91505092915050565b600067ffffffffffffffff8211156114f0576114ef6113aa565b5b602082029050602081019050919050565b600080fd5b6000611519611514846114d5565b61140a565b9050808382526020820190506020840283018581111561153c5761153b611501565b5b835b8181101561158357803567ffffffffffffffff8111156115615761156061138f565b5b80860161156e89826114a7565b8552602085019450505060208101905061153e565b5050509392505050565b600082601f8301126115a2576115a161138f565b5b81356115b2848260208601611506565b91505092915050565b600080600080608085870312156115d5576115d461116e565b5b600085013567ffffffffffffffff8111156115f3576115f2611173565b5b6115ff878288016114a7565b945050602085013567ffffffffffffffff8111156116205761161f611173565b5b61162c8782880161158d565b935050604061163d87828801611199565b925050606061164e87828801611199565b91505092959194509250565b61166381611178565b82525050565b600060208201905061167e600083018461165a565b92915050565b600081519050919050565b600082825260208201905092915050565b6000819050602082019050919050565b6116b981611359565b82525050565b60006116cb83836116b0565b60208301905092915050565b6000602082019050919050565b60006116ef82611684565b6116f9818561168f565b9350611704836116a0565b8060005b8381101561173557815161171c88826116bf565b9750611727836116d7565b925050600181019050611708565b5085935050505092915050565b6000602082019050818103600083015261175c81846116e4565b905092915050565b600081519050919050565b600082825260208201905092915050565b60005b8381101561179e578082015181840152602081019050611783565b838111156117ad576000848401525b50505050565b60006117be82611764565b6117c8818561176f565b93506117d8818560208601611780565b6117e181611399565b840191505092915050565b600081519050919050565b600082825260208201905092915050565b6000819050602082019050919050565b600061182483836117b3565b905092915050565b6000602082019050919050565b6000611844826117ec565b61184e81856117f7565b93508360208202850161186085611808565b8060005b8581101561189c578484038952815161187d8582611818565b94506118888361182c565b925060208a01995050600181019050611864565b50829750879550505050505092915050565b600060808301600083015184820360008601526118cb82826117b3565b915050602083015184820360208601526118e58282611839565b91505060408301516118fa6040860182611207565b50606083015161190d6060860182611207565b508091505092915050565b6000602082019050818103600083015261193281846118ae565b905092915050565b600080604083850312156119515761195061116e565b5b600061195f85828601611199565b925050602061197085828601611199565b9150509250929050565b7f4e487b7100000000000000000000000000000000000000000000000000000000600052602260045260246000fd5b600060028204905060018216806119c157607f821691505b6020821081036119d4576119d361197a565b5b50919050565b7f4e487b7100000000000000000000000000000000000000000000000000000000600052603260045260246000fd5b7f4e487b7100000000000000000000000000000000000000000000000000000000600052601160045260246000fd5b6000611a4382611178565b91507fffffffffffffffffffffffffffffffffffffffffffffffffffffffffffffffff8203611a7557611a74611a09565b5b600182019050919050565b600082825260208201905092915050565b7f4475726174696f6e206d7573742062652067726561746572207468616e203000600082015250565b6000611ac7601f83611a80565b9150611ad282611a91565b602082019050919050565b60006020820190508181036000830152611af681611aba565b9050919050565b7f53746172742074696d65206d75737420626520696e2074686520667574757265600082015250565b6000611b33602083611a80565b9150611b3e82611afd565b602082019050919050565b60006020820190508181036000830152611b6281611b26565b9050919050565b7f50726f76696465206174206d696e696d756d2074776f206f7074696f6e730000600082015250565b6000611b9f601e83611a80565b9150611baa82611b69565b602082019050919050565b60006020820190508181036000830152611bce81611b92565b9050919050565b6000611be082611764565b611bea8185611a80565b9350611bfa818560208601611780565b611c0381611399565b840191505092915050565b60006060820190508181036000830152611c288186611bd5565b9050611c37602083018561165a565b611c44604083018461165a565b949350505050565b6000611c5782611178565b9150611c6283611178565b9250827fffffffffffffffffffffffffffffffffffffffffffffffffffffffffffffffff03821115611c9757611c96611a09565b5b828201905092915050565b600082825260208201905092915050565b6000611cbe826117ec565b611cc88185611ca2565b935083602082028501611cda85611808565b8060005b85811015611d165784840389528151611cf78582611818565b9450611d028361182c565b925060208a01995050600181019050611cde565b50829750879550505050505092915050565b60006020820190508181036000830152611d428184611cb3565b905092915050565b7f4164647265737320616c726561647920636173746564206120766f746520666f60008201527f722062616c6c6f74000000000000000000000000000000000000000000000000602082015250565b6000611da6602883611a80565b9150611db182611d4a565b604082019050919050565b60006020820190508181036000830152611dd581611d99565b9050919050565b7f43616e2774206361737420616674657220656e642074696d6500000000000000600082015250565b6000611e12601983611a80565b9150611e1d82611ddc565b602082019050919050565b60006020820190508181036000830152611e4181611e05565b905091905056fea26469706673582212201cf796b2d3b81336c924fffb23948bd60edbc7f5f9d74fe2dbaaf6f6f7f276d364736f6c634300080d0033",
  "immutableReferences": {},
  "source": "// SPDX-License-Identifier: MIT\npragma solidity ^0.8.13;\n\ncontract SimpleVoting {\n    // counter enables us to use a mapping\n    // instead of an array for the ballots\n    // this is more gas effiecient\n    uint public counter = 0;\n\n    // the structure of a ballot object\n    struct Ballot {\n        string question;\n        string[] options;\n        uint startTime;\n        uint duration;\n    }\n\n    mapping(uint => Ballot) private _ballots;\n    mapping(uint => mapping(uint => uint)) private _tally;\n    mapping(uint => mapping(address => bool)) public hasVoted;\n\n    event BallotCreated(\n        uint indexed ballotIndex,\n        string question,\n        uint startTime,\n        uint duration\n    );\n\n    event Options(\n        string[] options\n    );\n\n    event VoteCast(\n        uint indexed ballotIndex,\n        address indexed voter,\n        uint optionIndex\n    );\n\n    function createBallot(\n        string memory question_,\n        string[] memory options_,\n        uint startTime_,\n        uint duration_\n    ) external {\n        require(duration_ > 0, \"Duration must be greater than 0\");\n        require(\n            startTime_ > block.timestamp,\n            \"Start time must be in the future\"\n        );\n        require(options_.length >= 2, \"Provide at minimum two options\");\n\n        _ballots[counter] = Ballot(question_, options_, startTime_, duration_);\n        counter++;\n\n        emit BallotCreated(counter, question_, startTime_, duration_);\n        string[] memory options = new string[](options_.length + 1);\n        for (uint i = 0; i < options_.length; i++){\n            options[i] = options_[i];\n        }\n        emit Options(options);\n    }\n\n    function getBallotByIndex(\n        uint index_\n    ) external view returns (Ballot memory ballot) {\n        ballot = _ballots[index_];\n    }\n\n    function cast(uint ballotIndex_, uint optionIndex_) external {\n        require(\n            !hasVoted[ballotIndex_][msg.sender],\n            \"Address already casted a vote for ballot\"\n        );\n        Ballot memory ballot = _ballots[ballotIndex_];\n        require(\n            block.timestamp < ballot.startTime + ballot.duration,\n            \"Can't cast after end time\"\n        );\n        _tally[ballotIndex_][optionIndex_]++;\n        hasVoted[ballotIndex_][msg.sender] = true;\n        emit VoteCast(ballotIndex_, msg.sender, optionIndex_);\n    }\n\n    function getTally(\n        uint ballotIndex_,\n        uint optionIndex_\n    ) external view returns (uint) {\n        return _tally[ballotIndex_][optionIndex_];\n    }\n\n    function results(uint ballotIndex_) external view returns (uint[] memory) {\n        Ballot memory ballot = _ballots[ballotIndex_];\n        uint len = ballot.options.length;\n        uint[] memory result = new uint[](len);\n        for (uint i = 0; i < len; i++) {\n            result[i] = _tally[ballotIndex_][i];\n        }\n        return result;\n    }\n\n    function winners(uint ballotIndex_) external view returns (bool[] memory) {\n        Ballot memory ballot = _ballots[ballotIndex_];\n        uint len = ballot.options.length;\n        uint[] memory result = new uint[](len);\n        uint max;\n        for (uint i = 0; i < len; i++) {\n            result[i] = _tally[ballotIndex_][i];\n            if (result[i] > max) {\n                max = result[i];\n            }\n        }\n        bool[] memory winner = new bool[](len);\n        for (uint i = 0; i < len; i++) {\n            if (result[i] == max) {\n                winner[i] = true;\n            }\n        }\n        return winner;\n    }\n}\n",
  "sourcePath": "/Users/lutfiikbalmajid/hasdev/workshop-blockchain/truffle/contracts/SimpleVoting.sol",
  "compiler": {
    "name": "solc",
    "version": "0.8.13+commit.abaa5c0e.Emscripten.clang"
  },
  "schemaVersion": "3.4.16",
  "updatedAt": "2024-02-05T07:37:19.243Z",
  "networkType": "ethereum",
  "devdoc": {
    "kind": "dev",
    "methods": {},
    "version": 1
  },
  "userdoc": {
    "kind": "user",
    "methods": {},
    "version": 1
  }
}